:1000000063C0000072C0000070C000006EC000003D
:100010006CC000006AC0000068C0000066C000003C
:1000200064C0000062C0000060C000005EC000004C
:100030005CC000005AC0000058C0000056C000005C
:1000400054C0000052C0000050C000004EC000006C
:100050004CC000004AC0000048C0000046C000007C
:1000600044C0000042C0000040C000003EC000008C
:100070003CC000003AC0000038C0000036C000009C
:1000800034C0000032C0000030C000004E414E4974
:100090004E495459494E46CDCCCC3D0AD7233C1746
:1000A000B7D13877CC2B329595E6241FB14F0A0093
:1000B0000020410000C84200401C4620BCBE4CCA83
:1000C0001B0E5AAEC59D740011241FBECFEFD0E4A5
:1000D000DEBFCDBF21E0A0E0B1E001C01D92AC3198
:1000E000B207E1F7ECD40C9484098ACF1092C500D2
:1000F00080E18093C40088E18093C1008EE080930A
:10010000C2000895E0ECF0E080818823ECF7809154
:10011000C6000895EF92FF920F931F93CF93DF9342
:10012000082F192FE62EEEDF8A30C1F0F12C91E076
:10013000E91AF1081E141F04A4F4C02FD12F219630
:10014000FE01319780831C2F101BDCDF8A3059F0B1
:10015000212F30E02E153F0594F305C0C02FD12F7D
:1001600002C0C02FD12F1882DF91CF911F910F9124
:10017000FF90EF9008955E98159808955E9A159AED
:100180000895569A0D9AFADF3D9A579A45985F98C6
:100190003F9A3E9A47984698229A239A2A982B98F3
:1001A0000895882311F045980895459A08955F9A17
:1001B0000097B1F020E030E041E24A95F1F700000D
:1001C0002F5F3F4F28173907B9F70CC041E24A9516
:1001D000F1F700002F5F3F4F28173907B9F708954F
:1001E0005F9808955F9820E030E0F0CF882311F009
:1001F00047980895479A0895469A0097B1F020E0ED
:1002000030E041E24A95F1F700002F5F3F4F281799
:100210003907B9F70CC041E24A95F1F700002F5FAA
:100220003F4F28173907B9F708954698089546981B
:1002300020E030E0F0CF882311F02A9808952A9A20
:1002400008952B9A0097B1F020E030E041E24A9502
:10025000F1F700002F5F3F4F28173907B9F70CC09F
:1002600041E24A95F1F700002F5F3F4F2817390709
:10027000B9F708952B9808952B9820E030E0F0CF3F
:100280003A983B983C98089586B182FB882780F97C
:1002900091E08927089586B183FB882780F991E052
:1002A0008927089586B18295817091E08927089504
:1002B000EBDF81110AC0EFDF811109C0F3DF91E0AC
:1002C000811101C090E0892F089581E0089581E0B7
:1002D00008952F923F924F925F926F927F928F92EA
:1002E0009F92AF92BF92CF92DF92EF92FF920F93C5
:1002F0001F93CF93DF93CDB7DEB7A4970FB6F894D3
:10030000DEBF0FBECDBF4B015C01298F3A8F4B8FF3
:100310005C8FED8EFE8E0F8F18A320E030E048EC4E
:1003200052E4B0D59FD49B01772324F422273327AE
:10033000261B370BC901330FAA0BBB0B8D879E877A
:10034000AF87B88B20E030E048EC52E4698D7A8DBD
:100350008B8D9C8D97D586D49B01772324F42227FF
:100360003327261B370BC901330FAA0BBB0B898B15
:100370009A8BAB8BBC8B20E030E048E453E46D8D6E
:100380007E8D8F8D98A17ED56DD46B01772324F45B
:10039000CC24DD24C61AD70A0D2C000CEE08FF0869
:1003A000CD8ADE8AEF8AF88E20910001309101011A
:1003B0004091020150910301C501B40183D32B0187
:1003C0003C0120E030E048E453ECE0D388230CF417
:1003D00040C120E030E0A901C301B2014FD5181699
:1003E0000CF437C1209104013091050140910601C0
:1003F00050910701698D7A8D8B8D9C8D63D32B0174
:100400003C0120E030E048E453E438D518160CF401
:1004100020C120E030E0A901C301B201B7D3882395
:100420000CF417C1209108013091090140910A0193
:1004300050910B016D8D7E8D8F8D98A143D32B0133
:100440003C0120E030E04AE753E418D518160CF4DC
:1004500000C120E030E0A901C301B20197D3882395
:100460000CF4F7C049895A896B897C898D859E85F2
:10047000AF85B88984179507A607B70710F4DB0185
:10048000CA0126013701C816D906EA06FB0610F490
:100490002C013D01D301C201B695A795979587958B
:1004A00089839A83AB83BC838D839E83AF83B88714
:1004B00089879A87AB87BC875EDE11E020E030E059
:1004C000A901C501B401DAD418160CF010E0812F8F
:1004D00068DE11E020E030E0A901698D7A8D8B8D16
:1004E0009C8DCCD418160CF010E081E081277EDEC4
:1004F00011E020E030E0A9016D8D7E8D8F8D98A1F7
:10050000BDD418160CF010E0812F95DE4114510473
:100510006104710409F059C06BC00C5F1F4F8394D4
:100520009394F50141915191619171915F01F801AD
:1005300080819181A281B381840F951FA61FB71F6F
:1005400084159505A605B70528F184199509A6090E
:10055000B70980839183A283B383911006C08091F1
:1005600014019091150123DE70C0F1E09F1206C0C6
:1005700080911601909117013FDE67C082E09812CA
:100580000EC080911801909119015BDE91DE8823E5
:1005900069F05FC0F80180839183A283B38388DE12
:1005A000811157C0F2E0F81508F0B7CF8FEFC81AE5
:1005B000D80AE80AF80AC414D504E604F70479F462
:1005C00089A09AA0ABA0BCA013C0C12CD12C7601ED
:1005D000212C3324339489A29AA2ABA2BCA28E010F
:1005E0000F5F1F4FFE013D965F01922C832C99CF28
:1005F000C5DD00E011E0A5019401F8016081718181
:10060000828193815FD2F8016083718382839383B7
:10061000298D3A8D4B8D5C8D6481758186819781A2
:1006200051D2F80164837583868397832D8D3E8D27
:100630004F8D58A1608571858285938543D2F801DD
:10064000608771878287938704C032DE882309F42C
:1006500064CFA4960FB6F894DEBF0FBECDBFDF9176
:10066000CF911F910F91FF90EF90DF90CF90BF90AF
:10067000AF909F908F907F906F905F904F903F9042
:100680002F900895EF92FF920F931F9320910801EE
:100690003091090140910A0150910B0160E070E036
:1006A0008AE793E40ED27B018C0120E030E0A901BF
:1006B000CA01B9010EDE1F910F91FF90EF900895CE
:1006C000009769F020E030E0E9EFF0E03197F1F7D2
:1006D00000C000002F5F3F4F28173907A9F7089582
:1006E000CF92DF92EF92FF92CF93DF936B017C0169
:1006F000609110017091110180911201909113018C
:10070000E2D2A701960142D2882309F466C020E014
:1007100030E048E454E4C701B601B0D3181694F0B1
:1007200020E030E048E453E4C701B6012FD288232B
:100730008CF40F2EC12CD12CF8E4EF2EF3E4FF2E15
:10074000F02D08C00F2EC12CD12CF8E4EF2EF4E4CC
:10075000FF2EF02D20E030E048EC52E4C701B60156
:1007600091D320E030E64AE657E414D29B01AC0175
:1007700060E070E080E89FE30DD220E030E040EAE6
:1007800050E480D3E2D373D2C0E1D1E07D836C83A7
:100790007F836E8320E030E048E453E4C701B60174
:1007A00071D320E030E64AE657E4F4D19B01AC0176
:1007B00060E070E080E89FE3EDD120E030E040EAC7
:1007C00050E460D3C2D353D279876887C701B6019A
:1007D0004ED2688379838A839B83DF91CF91FF9088
:1007E000EF90DF90CF9008950F931F93CF93DF93F7
:1007F00060E070E088E493E473DFBDDC81E0D1DC8D
:1008000081E0F4DC80E017DDC0E1D1E003C08C8141
:100810009D81CDDC39DD8823D1F3C0E1D1E003C077
:100820008E819F81E9DC37DD8823D1F3C0E1D1E0FF
:1008300003C08885998505DD35DD8823D1F380E007
:10084000B0DC80E0D3DC81E0F6DCC0EDD7E000E195
:1008500011E0F80184819581AADCF80186819781F5
:10086000CBDC2197B1F7C0EDD7E000E111E0F80152
:1008700080859185E6DC2197D1F780DCE0E0F1E02E
:1008800010821182128213821482158216821782BC
:100890001086118612861386F5DEDF91CF911F91A7
:1008A0000F9108958CE0E0E0F1E0DF011D928A9560
:1008B000E9F78AE0E0E1F1E0DF011D928A95E9F7CE
:1008C000DFDC5FDC91CF08958F929F92AF92BF9251
:1008D000CF92DF92EF92FF920F931F93CF93DF930C
:1008E000CDB7DEB78C01ADB6BEB670E051D3801B7C
:1008F000910BC1F18DB69EB6FC01D080ED2CF12C90
:1009000060E270E0C8018E0D9F1D42D3801B910BE9
:1009100088233CF4F80101900020E9F731978E2FED
:10092000801B4D2D4095840F482F50E08DB79EB70A
:10093000841B950B0FB6F8949EBF0FBE8DBFEDB70D
:10094000FEB731966F01B7016F5F7F4F600F711F68
:10095000CF0129D3C60119D30FB6F8949EBE0FBE9E
:100960008DBE04C06FEF7FEF8FE79FE70FB6F8945F
:10097000BEBE0FBEADBEDF91CF911F910F91FF9014
:10098000EF90DF90CF90BF90AF909F908F900895A1
:10099000CF93DF93EC0168E597DF69E5CE0194DF43
:1009A0006AE5CE0191DFDF91CF910895CF93DF9378
:1009B000EC0168E589DF69E5CE0186DF6AE5CE01F5
:1009C00083DF66E4CE0180DFDF91CF910895CF937E
:1009D000DF93EC0168E578DF69E5CE0175DF69E456
:1009E000CE0172DF6AE4CE016FDF66E4CE016CDF18
:1009F000DF91CF910895CF92DF92EF92FF9260E561
:100A000063DF6B017C012FEF3FEF4FE75FE7BED065
:100A1000882329F0C701B6012AD1CB0151DEFF900E
:100A2000EF90DF90CF900895CF93DF93FC0120816A
:100A30003FEB320F3A3150F5EC01273419F567E4FA
:100A400043DF15D1623089F028F4662341F061302C
:100A500049F01CC0633071F0643089F017C0CE01DA
:100A600097DF14C0CE01A2DF11C061E070E0CE01BB
:100A7000AEDF0CC060E070E0CE01A9DF07C0CE01A0
:100A8000BADF04C02D3411F46DE41EDFDF91CF9185
:100A900008952CDB07CF0895CF93DF93CDB7DEB752
:100AA000C058D1090FB6F894DEBF0FBECDBF60E8C5
:100AB000CE0101962FDBCE010196B6DFF8CFE9DF3C
:100AC000EBDF5058BB27AA270ED09EC18FD130F044
:100AD00094D120F031F49F3F11F41EF484C10EF440
:100AE000E095E7FB51C1E92FA0D180F3BA17620767
:100AF00073078407950718F071F49EF5B8C10EF4DA
:100B0000E0950B2EBA2FA02D0B01B90190010C011D
:100B1000CA01A0011124FF27591B99F0593F50F435
:100B2000503E68F11A16F040A22F232F342F44278D
:100B3000585FF3CF469537952795A795F040539585
:100B4000C9F77EF41F16BA0B620B730B840BBAF055
:100B50009150A1F0FF0FBB1F661F771F881FC2F7C0
:100B60000EC0BA0F621F731F841F48F487957795D4
:100B70006795B795F7959E3F08F0B3CF9395880F8B
:100B800008F09927EE0F979587950895D9D008F426
:100B900081E008950CD038C130D140F027D130F039
:100BA00021F45F3F19F0F0C0511162C11CC13DD169
:100BB00098F39923C9F35523B1F3951B550BBB2724
:100BC000AA2762177307840738F09F5F5F4F220FD1
:100BD000331F441FAA1FA9F333D00E2E3AF0E0E8CA
:100BE00030D091505040E695001CCAF729D0FE2F16
:100BF00027D0660F771F881FBB1F261737074807A8
:100C0000AB07B0E809F0BB0B802DBF01FF2793585D
:100C10005F4F2AF09E3F510568F0B6C029C15F3F83
:100C2000ECF3983EDCF3869577956795B795F79545
:100C30009F5FC9F7880F911D9695879597F908953D
:100C4000E1E0660F771F881FBB1F621773078407D9
:100C5000BA0720F0621B730B840BBA0BEE1F88F7E8
:100C6000E095089504D06894B11102C10895E5D0CB
:100C700088F09F5790F0B92F9927B751A0F0D1F085
:100C8000660F771F881F991F1AF0BA95C9F712C00F
:100C9000B13081F0ECD0B1E00895E9C0672F782F32
:100CA0008827B85F39F0B93FCCF38695779567957B
:100CB000B395D9F73EF490958095709561957F4FE7
:100CC0008F4F9F4F0895E89409C097FB3EF490958D
:100CD0008095709561957F4F8F4F9F4F9923A9F015
:100CE000F92F96E9BB279395F695879577956795A4
:100CF000B795F111F8CFFAF4BB0F11F460FF1BC0E8
:100D00006F5F7F4F8F4F9F4F16C0882311F096E97A
:100D100011C0772321F09EE8872F762F05C0662328
:100D200071F096E8862F70E060E02AF09A95660FE1
:100D3000771F881FDAF7880F9695879597F908959A
:100D4000990F0008550FAA0BE0E8FEEF16161706DC
:100D5000E807F907C0F012161306E407F50798F044
:100D6000621B730B840B950B39F40A2661F0232B5D
:100D7000242B252B21F408950A2609F4A140A695D9
:100D80008FEF811D811D089597F99F6780E870E0BE
:100D900060E00895882371F4772321F09850872B21
:100DA000762F07C0662311F499270DC09051862B2A
:100DB00070E060E02AF09A95660F771F881FDAF7D7
:100DC000880F9695879597F908959F3F31F0915038
:100DD00020F4879577956795B795880F911D96951F
:100DE000879597F908959FEF80EC089500240A9461
:100DF0001616170618060906089500240A941216F6
:100E00001306140605060895092E0394000C11F428
:100E1000882352F0BB0F40F4BF2B11F460FF04C0D5
:100E20006F5F7F4F8F4F9F4F089557FD9058440F2E
:100E3000551F59F05F3F71F04795880F97FB991F39
:100E400061F09F3F79F087950895121613061406F6
:100E5000551FF2CF4695F1DF08C016161706180683
:100E6000991FF1CF86957105610508940895E8945E
:100E7000BB2766277727CB0197F9089561DF08F430
:100E80008FEF08950BD0C0CFB1DF28F0B6DF18F098
:100E9000952309F079CFA7CF1124EACFC6DFA0F3BD
:100EA000959FD1F3950F50E0551F629FF001729FFF
:100EB000BB27F00DB11D639FAA27F00DB11DAA1F1E
:100EC000649F6627B00DA11D661F829F2227B00D6B
:100ED000A11D621F739FB00DA11D621F839FA00DF6
:100EE000611D221F749F3327A00D611D231F849F46
:100EF000600D211D822F762F6A2F11249F5750409D
:100F00008AF0E1F088234AF0EE0FFF1FBB1F661F37
:100F1000771F881F91505040A9F79E3F510570F0F0
:100F200033CFA6CF5F3FECF3983EDCF38695779501
:100F30006795B795F795E7959F5FC1F7FE2B880FEB
:100F4000911D9695879597F9089577DFE0F09E3784
:100F5000D8F09639B8F49E3848F4672F782F882750
:100F6000985FF9CF86957795679593959539D0F3E6
:100F7000B62FB1706B0F711D811D20F48795779589
:100F80006795939507CF21CF73CF662777271AC030
:100F9000FC018191861721F08823D9F799270895BC
:100FA0003197CF010895FB01DC014150504048F0DA
:100FB00001900D920020C9F701C01D924150504090
:100FC000E0F708956F927F928F929F92AF92BF92B7
:100FD000CF92DF92EF92FF920F931F93CF93DF9305
:100FE000EC017B016115710519F0DB018D939C9378
:100FF0008E010F5F1F4F7880872D90E049D1892B9C
:1010000011F0E801F5CFBDE27B1205C00F5F1F4F65
:101010007980C1E008C0EBE27E1204C08E010E5F51
:101020001F4F7980C0E06801F1E0CF1AD10843E09A
:1010300050E064E970E0C60133D1892BE9F468011E
:1010400022E0C20ED11C45E050E06FE870E0C6011E
:1010500027D1892B21F4680187E0C80ED11CE11447
:10106000F10419F0D701CD92DC92C111F9C060E012
:1010700070E080E89FE7FDC043E050E06CE870E07E
:10108000C6010ED1892B51F4E114F10409F4EDC02D
:101090000E5F1F4FF70111830083E7C0680160E016
:1010A00070E0CB0100E010E0F601D0EDD70DDA30B2
:1010B00050F52C2F2260622E2C2F2870C2FF05C005
:1010C000211127C00F5F1F4F24C0222311F00150B0
:1010D0001109A5E0B0E09B01AC01FDD04B015C0122
:1010E000880C991CAA1CBB1CC501B4016D0F711D95
:1010F000811D911D6839A9E97A078A07A9E19A0734
:1011000040F0C66005C0DE3F51F4C3FD44C0C86076
:101110006C2EBFEFCB1ADB0A7080C62DC5CF2D2FEA
:101120002F7D2531C1F540814D3211F4C06106C0DB
:101130004B3221F0319621E030E006C03296D601E4
:1011400011964C9122E030E0A0EDA40FAA3018F0E7
:10115000E21BF30B20C040E050E04038BCE05B07EE
:101160005CF49A01220F331F220F331F420F531FCB
:10117000440F551F4A0F511D3196DF0111972C91D5
:10118000A0EDA20FAA3048F3C4FF03C051954195CA
:101190005109040F151FC1FF07C0E114F10421F02C
:1011A0003197D701ED93FC938EDDC370C33019F0F6
:1011B0006B017C0106C06B017C01F7FAF094F7F833
:1011C000F09420E030E0A901C701B601DFDC8823FC
:1011D00009F443C017FF06C0119501951109CBEA28
:1011E000D0E002C0C3ECD0E05E01B8E1AB1AB108B8
:1011F0004601BE2DAF2D90E2E92EF12C0E151F05F4
:101200007CF0FE012591359145915491B4018B2FCD
:101210009A2F38DE4B01B82FA92F0E191F09EECFD8
:101220002497F594E794CA15DB0541F76401EB2E8A
:10123000FA2E8E2D880F8F2D881F8F3F41F020E0D2
:1012400030E0A901C701B601A1DC811106C082E22C
:1012500090E090931B0180931A01C701B60109C069
:1012600060E070E080E89FEF04C060E070E080EC38
:101270009FE7DF91CF911F910F91FF90EF90DF904B
:10128000CF90BF90AF909F908F907F906F90089578
:1012900091111EC0803219F089508550D0F7089501
:1012A000FB01DC014150504088F08D9181341CF0ED
:1012B0008B350CF4805E659161341CF06B350CF459
:1012C000605E861B611171F3990B0895881BFCCF3A
:1012D00099278827089509D0A59F900DB49F900D58
:1012E000A49F800D911D11240895A29FB001B39F6A
:1012F000C001A39F700D811D1124911DB29F700D1F
:0C130000811D1124911D0895F894FFCF69
:00000001FF
